:02000000132DBE
:1000080070082000A1008A0183010B1D1B28B30A78
:100018000319B40A3408013A031D1428C230330600
:10002800031D1A280C10B301B4018B130B112108FE
:04003800F0000900CB
:04003C0000000800B8
:100040000830FC002330FD00FD0B2428FC0B242885
:020050000800A6
:0C0052001030FD00FD0B2B280000080002
:0A005E000730FD00FD0B31280800FB
:0E006800F201F101F001F801F301003008008F
:100076007B15FB1F45280130F300F201F101F00169
:08008600FA0DF20CFF30080036
:08008E00FA1FF2130030080014
:10009600FB14FB1F5528FF30F300F200F100F000BF
:0800A600FA0DF20CFF30080016
:0600AE00FB15FF30080005
:1000B4002000EF1B5F288C1060288C146F1B6428B1
:1000C4000C1165280C15EF1A69288C116A288C15F7
:1000D4006F1A6E280C126F280C16501873288E1580
:1000E40074288E110E151E200E11EF197B288C100A
:1000F4007C288C146F1980280C1181280C15EF189A
:1001040085288C1186288C156F188A280C128B2848
:100114000C1650188F288E1590288E110E151E203F
:0E0124000E11501C9728202098282920080032
:10013200F3302000D1000030D2006F30D300003005
:0E014200D400F03021009E009D011D14080025
:10015000A0017208031DBD287108F2007008F100AB
:10016000F001A0157208031DBD287108F200F1010D
:10017000A011201672080319CB282008F302031DD2
:10018000031CCF280310F21BD328F00DF10DF20D44
:10019000F30BC328CF280130FC003420D6280230CE
:0E01A000FC003B20D6280430FC00472008005D
:1001AE002000F801F9011030FC00710DF80DF90D69
:1001BE007408F8027508031C750FF9020318EE286F
:1001CE007408F80775080318750FF9070310F00D7A
:0801DE00F10DFC0BDC28080008
:1001E600833021009D0520006F08F000F035F035C2
:1001F600700821009D042F209D149D1C03290029B1
:100206001C08F100F0011B08F0040030F10408009E
:1002160020007008F8007108F000F101F201F30106
:10022600FB01FC019630F300FA017008F100780832
:0A023600F000F801F201A820080012
:0E024000992020006A08EF00F3201D1008002E
:0E024E00200050106A08EF005A2050140800DB
:10025C002000EE0105306E0203183E296E086C0773
:10026C00860000306D3D870020308100EE0A302979
:10027C006E086C07860000306D3D87008101EE032F
:10028C006E086C072100A000003020006D3D21009D
:10029C00A1000A30F400F50120006A08F0006B0898
:1002AC00F100D7207808F0007908F1003030F00721
:1002BC0021002008860021088700700881000A3080
:1002CC00F400F50120006A08F0006B08F100D7205B
:1002DC007008EA007108EB0000307106031D7829E4
:1002EC0000307006031D7B297D29EE03462908008A
:1002FC007408003A031D97297508003A031D9729C5
:10030C007608003A031D97297708003A031D9729B0
:10031C00FF30F000FF30F1007F30F200FF30F300CF
:10032C00312A200077080319252A73080319282A73
:10033C00720876068039FA00F217F617A0017208D7
:10034C00F8007108FC007008FD007408FD027508C7
:10035C00031C750FFC027608031C760FF802F801DB
:10036C00FC01FD01031CC1290310F20CF10CF00C73
:10037C00F80C0130A0007708F302031CCB297E3067
:10038C002007F30703182B2AD0297E302007F30708
:10039C00031C2E2A1830FA07FD0DFC0DF80DF00D7C
:1003AC00F10DF20DA00D7408F0027508031C750F09
:1003BC00F1027608031C760FF202760DA004201CC5
:1003CC00E9297D14F4297408F00775080318750FD2
:1003DC00F10776080318760AF2077D10FA031F302E
:1003EC007A05031DD2297B1B7D1C1B2A0310F00DE3
:1003FC00F10DF20DA00D7408F0027508031C750FB9
:10040C00F1027608031C760FF202760D20040139F6
:10041C00FD070318FC0A0319F80A031D1B2AF80C24
:10042C00FC0CFD0CF30A03192B2AFA1FF81378089D
:10043C00F2007C08F1007D08F0000030302A013019
:10044C005720302A02303420302A04304B20302AF6
:08045C0008303B2000000800FD
:100464002000FB017308031D77080319882A72080A
:100474007606FA007708F3077E30031C452AF30258
:1004840003188B2A482AF302031C8E2A7208F800E8
:100494007108FC007008FD00F817F6170310F2014C
:1004A400F101F0011830A0007D1C622A7408F007E5
:1004B40075080318750FF10776080318760FF2070D
:1004C400F20CF10CF00CF80CFC0CFD0C0310A00B5E
:1004D400562AF21B722AF80DF00DF10DF20DF303FA
:1004E4007B1B701C842AF81F842AF00A0319F10A62
:1004F4000319F20A031D842AF20CF10CF00CF30A1E
:1005040003198B2AFA1FF2130030902A0130342089
:10051400902A02304B20902A04303B20000008002F
:100524007B14FB1F9D2AF201FA1FFF30F200F10039
:0A053400F000FA0DF20CFF30080091
:10053E00B02A80302000EA00C22AC030EA00C22A67
:10054E009430EA00C22AD430EA00C22A8030EA008F
:10055E00C22A20006A08013A0319A02A6A08023A40
:10056E000319A42A6A08033A0319A72A6A08043A47
:10057E000319AA2AAD2A6B03F0006A08F007700867
:10058E00EA0050147008EF005A2050106C08EF006B
:06059E005A205014080071
:1005A4000D302000EA0020210B217008D5007108CD
:1005B400D6007208D7007308D8000430FC00E43079
:1005C400FD00FD0BE32AFC0BE32A00005508F000B4
:1005D4005608F1005708F2005808F3000030F40000
:1005E4000030F5002030F6008130F7003222003070
:1005F400F4000030F5000030F6008930F7007E2169
:100604007008D5007108D6007208D7007308D800A6
:100614000030F4000030F5004830F6008530F70073
:1006240032227008D5007108D6007208D70073080A
:04063400D8000800E2
:100638002000FB0173080319582B7208FA00F217FF
:100648008E30F302F31F5B2BF309F30A08307302B1
:10065800031C3E2BF300F10D7208F100F201083083
:100668007302031C3E2BF300F10DF1017308031D07
:100678000310462B73080319462B0310F20CF10CD8
:10068800F30B412B7B1B711C502B031C502BF10AC5
:100698000319F20AF21B672BFA1F6A2BF209F109F8
:1006A800F10A0319F20A6A2BF201F1016A2B7B1491
:1006B800FB1F6D2BF201FA1F6D2BFF30F200F100CA
:1006C800FA0DF20C6D2B0130FC006F2B0030FC0092
:1006D8006F2BFF30FC00FC080319732B9222710862
:0806E800F0007208F1000800A7
:1006F00040302000EF005A20E2016208073C031C52
:100700008E2BA03084008530850062088407031892
:10071000850A0008EA002721E20A7D2B0230EF005B
:100720005A206008EA006108EB00EC019F220800F3
:1007300021000E118E110C128C110C118C10200046
:100740000E118E118C100C118C110C1220202020F7
:1007500020208C150C160E151E200E1120200E15B3
:100760001E200E1120200E151E200E1120200C120E
:100770000E151E200E1120200E151E200E118C119C
:100780008C140E151E200E1120208C100C160E1528
:100790001E200E110C120E151E200E1120200E15FB
:1007A0001E200E110C160E151E200E1120200C12EC
:1007B0000E151E200E118C140C158C150C160E1512
:0A07C0001E200E1120205014080026
:1007CA00F62B80302000E000082CC030E000082C16
:1007DA009430E000082CD430E000082C8030E0008F
:1007EA00082C20006008013A0319E62B6008023A37
:1007FA000319EA2B6008033A0319ED2B6008043A3F
:10080A000319F02BF32B6103F0006008F00770085E
:10081A00E0007008EF005A205010E40164086207F3
:10082A0084000030633D850000080319272C640802
:10083A00620784000030633D85000008EA00272132
:08084A00E40A132C501408000D
:100852002000E601E7016008E8006108E900803055
:100862006106F00080307002031D392C00306002F6
:100872000318472C0130E6000030E7006008003C16
:10088200E8006108031C013EE901E9026808EA0088
:100892006908EB006208EC006308ED002E210630C7
:1008A200E4000030E5006508003C031D5A2C640892
:1008B200003C0318752C6408620786006508633DD6
:1008C200870001306402F0000030653BF1007008DF
:1008D200620784007108633D8500000881000130D1
:1008E200E4020030E53B542C62088600630887006E
:1008F200203081006608670403199B2CE401E5019E
:100902006408620784006508633D85000008203A98
:10091200031D8F2CE40A0319E50A812C0130E4023D
:100922000030E53B6408620786006508633D870086
:060932002D3081000800D9
:1009380001302000E0000130E1003D30E2000030ED
:10094800E300E523D2225508F0005608F1005708C5
:10095800F2005808F3001C237008E0007108E10059
:100968005930E2000030E30029240230E00003306F
:10097800E1005930E2000030E300E5230230E000F6
:100988000930E10078230230E0000A30E100353018
:10099800E2000030E300E5230230E0000130E1002E
:0C09A8003730E2000030E300E5230800D7
:1009B40021000C108D1623008C018D018D16210051
:1009C4009512151295111514951415158B178B1670
:1009D4000B11200095018230FC00DD30FD00FD0B81
:1009E400F12CFC0BF12C0000000098238230FC0059
:1009F400DD30FD00FD0BFC2CFC0BFC2C000000008A
:100A04000130EF005A200C30EF005A200C1408007B
:100A140012001E00F003031D0A2DF103031D0A2D0D
:020A24000800C8
:100A2600A825DA249C245508F0005608F10057083A
:100A3600F2005808F3001C237008E0007108E1007A
:100A46005930E2000030E30029240230E000033090
:100A5600E1005930E2000030E300E5230230E00017
:100A66000930E10078230230E0000A30E1004E3020
:100A7600E2000030E300E5230230E0000130E1004F
:100A86003730E2000030E300E5231A30FB005E3029
:100A9600FC006E30FD00FD0B4E2DFC0B4E2DFB0BAE
:100AA6004E2D00000230D006D01C622D0130E00031
:100AB6000130E1002230E2000030E300E523D018E7
:100AC6006D2D0130E0000130E1003D30E2000030E4
:080AD600E300E523162D6E2D4F
:100B500072308400853085002E30F0000130F100C5
:0C0B600022308600003087000A250800C3
:100AE40041346C3465347834203445346634743499
:100AF400683479346D3469346134643469347334FA
:020B04000034BB
:040B06000034003483
:040B0A00433400343C
:0C0B0E00543465346D3470343A340034D3
:100B1A0020342034203420346D346F3474347234E9
:100B2A00613463346B34203420342034203420344C
:020B3A00003485
:040B3C00433400340A
:100B400006340934093406340034003400340034E7
:020000040001F9
:04000E00E23F331684
:00000001FF
