:02000000CC2A08
:100006002000FB01FA01F9018030F800F10CF00C38
:10001600031C16287408F90775080318750FFA07E4
:100026000318FB0A0310F01F1E287408FA07750848
:100036000318750FFB07FB0CFA0CF90CF80C031CE4
:1000460009287B08F3007A08F2007908F10078089D
:04005600F0000800AE
:10005A0020001B08013EF000F1010030F13D4D087F
:10006A00F400F50103200630F2007008F40071086C
:10007A00F500720803194528F536F40CFF3E3F28AF
:10008A000430F1007408F000710803194F28F035A4
:10009A00FF3E4A2830307005F3007408F0007508F6
:1000AA00F100F136F00CF136F00C700825009100E1
:0A00BA000F3093057308930408004B
:1000C40020001B08013EF000F1010030F13D4D0815
:1000D400F400F50103200630F2007008F400710802
:1000E400F500720803197A28F536F40CFF3E7428DB
:1000F4000430F1007408F000710803198428F03505
:10010400FF3E7F2830307005F3007408F000750856
:10011400F100F136F00CF136F00C7008250098006F
:0A0124000F309A0573089A040800D2
:10012E00FF302000A000A001B628FD0B9C28FC0B80
:10013E009C2800002008CD0062200D30FC00FB3012
:10014E00FD00FD0BA828FC0BA828000000002000D5
:10015E002008CD002D200F302000A0029A28080084
:10016E00FF302000A200FF30A300FF30A400FF30BC
:10017E00A500FF30AA00FF30AB000030AC0000300D
:10018E00AD00FF30B200FF30B3000030B4000030DD
:10019E00B500FF30AE00FF30AF000030B0000030D1
:1001AE00B10023009E1690309D0021008E170E1375
:1001BE002000911EE62823001908F000DF28080011
:1001CE0020004908240091001418EE28EB2811088D
:0401DE00F000080025
:1001E20058302000B6000130B7004930B800003066
:1001F200B900E730A6000030A7004930A80000305F
:10020200A90021008E128E110E1624009501403095
:060212009400951608009F
:0A021800250098011A129A1208003E
:1002220021008E1020001C150C3025009A040800B5
:1002320020002008FF3A031943296930A000FF304B
:100242002002031842294130FC00EE30FD00FD0B74
:100252002829FC0B282900002008CD0062200D303F
:10026200FC00FB30FD00FD0B3429FC0B342900009F
:10027200000020002008CD002D200F302000A00714
:1002820020294A292008CD002D2020002008CD0059
:0402920062200800DE
:1002960021000E1120001C150C30250093040800C7
:0A02A60025009101131293120800C5
:1002B000200049082400910014185F295C291108C6
:0402C000F000080042
:1002C40020000E140F108F100330FC009730FD0037
:1002D400FD0B6A29FC0B6A29000000000F11103085
:1002E400C900E7202000BA0180303A06F0008030CF
:1002F4000A3A7002031884293B08C90058212000D7
:10030400BA0A76290F150330FC009730FD00FD0B67
:100314008929FC0B8929000000008F100E140F148A
:020324000800CF
:1003260020002108B03A031DAC290230FB008630BC
:10033600FC009930FD00FD0B9E29FC0B9E29FB0B52
:100346009E2902308C0604308C0610308D06203033
:040356008D06080008
:10035A0020008F100E140F140F1ED5298F1DD529BA
:10036A000F110330FC009730FD00FD0BBA29FC0B7E
:10037A00BA29000000002430C900E72020003A080A
:10038A00C900582170082000A1000330FC009730F2
:10039A00FD00FD0BCE29FC0BCE29000000000F1535
:0203AA00080049
:1003AC0020000E140F108F100330FC009730FD004E
:1003BC00FD0BDE29FC0BDE29000000007B30BF00AA
:1003CC000C30C0004430C1000130C2000130C30009
:1003DC003A08C4003B08C5003C08C6003D08C700ED
:1003EC00DB30C8000F11C901E7202000BE018030AE
:1003FC003E06F00080300A3A70020318152A3F308E
:10040C008400003085003E0884070030BE1BFF309E
:10041C00853D0008C900E7202000BE0AFD290F1504
:10042C000330FC009730FD00FD0B1A2AFC0B1A2A36
:0C043C00000000008F100E140F140800C8
:1004480012001E00F003031D242AF103031D242AB1
:0204580008009A
:10045A0021008C100C110D128D1210108C128F129B
:10046A000F138F100F100E100F118F150F169014F7
:10047A0023008C018D018F0190018230FC00DD3058
:10048A00FD00FD0B462AFC0B462A00000000F12065
:10049A008230FC00DD30FD00FD0B512AFC0B512A95
:1004AA000000000020008C140C150D168D16063065
:1004BA00FB001330FC00AD30FD00FD0B622AFC0B83
:1004CA00622AFB0B622A000000008C100C110D122C
:1004DA008D128230FC00DD30FD00FD0B722AFC0B10
:1004EA00722A0000000023009F1567309B0000302D
:1004FA009C001E15B7208230FC00DD30FD00FD0B8C
:10050A00842AFC0B842A0000000020001C109C1086
:10051A00DD309B00532120001C109C10DD309B0015
:08052A000C214B2111210800F6
:1005320020002108203A031DA32A10148C128F16C2
:100542000F13192120002108403A031DAD2A101073
:100552008C168F120F17192120002108803A031DD3
:10056200B72A10148C128F120F171921200021089C
:10057200603A031DC12A10108C168F160F13192111
:1005820020002108A03A031DCB2A10108C128F12D2
:060592000F139720080082
:100598002000A0012D226221AB30BA00BC30BB0084
:1005A8005F30BC001830BD00D621AD2193219922BF
:0405B800D92ADD2A35
:020000040001F9
:04000E00E23F331684
:00000001FF
