:020000008A2B49
:0A0006000730FD00FD0B052808007F
:10001000833021009D0520005A08F000F035F035AE
:10002000700821009D0403209D149D1C182815288C
:100030001C08F100F0011B08F0040030F104080076
:1000400020005A0824009100141827282428110899
:04005000F0000800B4
:1000540008302000BE000030BF005A30C00000301D
:0E006400C100F03021009E009D011D14080017
:10007200FF302000AE00FF30AF00FF30B000FF3095
:10008200B100FF30AA00FF30AB000030AC000030FE
:10009200AD00FF30B600FF30B7000030B8000030CE
:1000A200B900FF30B200FF30B3000030B4000030BE
:1000B200B50023009E1690309D0021008E170E136E
:1000C2002000911E682823001908F000612808000A
:1000D200EA302000C2000030C3005530C4000030B6
:1000E200C5002030BA000030BB005A30BC000030DE
:1000F200BD0021008E128E110E1624009501403093
:06010200940095160800B0
:0E0108002A2020005508DA0008201D100800EB
:1001160020008E100E110E100D120330FC009730C9
:10012600FD00FD0B9428FC0B9428000000002230F3
:10013600DA00202020005608DA0020202000570888
:10014600DA00202020005808DA0020202000590874
:10015600DA00202020000D160730FC007D30FD005F
:10016600FD0BB328FC0BB3280D120330FC009730AF
:10017600FD00FD0BBC28FC0BBC2800000000203055
:10018600DA00202020005508DA00202020000D1675
:100196000330FC009730FD00FD0BCF28FC0BCF2869
:1001A600000000000C1ED828D5280E158E140E143B
:1001B6008D19DE28DB280730FC007D30FD00FD0BA5
:0E01C600E228FC0BE2280E108E140E15080025
:1001D40020005508240091001418F128EE28110875
:0401E400F00008001F
:1001E80020002108013A031D1B290D30FC00FB30BB
:1001F800FD00FD0BFD28FC0BFD2800000000203051
:10020800D500AB30D600BC30D7005F30D8001830EE
:10021800D9008B200D30FC00FB30FD00FD0B1229AE
:10022800FC0B122900000000A1010130A2002308E4
:10023800013A031D41290D30FC00FB30FD00FD0B88
:100248002329FC0B2329000000004030D500AB30E7
:10025800D600BC30D7005F30D8001830D9008B20CA
:100268000D30FC00FB30FD00FD0B3829FC0B382954
:1002780000000000A3010130A2002008013A031D7C
:1002880067290D30FC00FB30FD00FD0B4929FC0BF4
:100298004929000000008030D500AB30D600BC30C2
:1002A800D7005F30D8001830D9008B200D30FC0003
:1002B800FB30FD00FD0B5E29FC0B5E2900000000F1
:1002C800A0010130A2002508013A031D8D290D3037
:1002D800FC00FB30FD00FD0B6F29FC0B6F290000B3
:1002E80000006030D500AB30D600BC30D7005F309E
:1002F800D8001830D9008B200D30FC00FB30FD00F1
:10030800FD0B8429FC0B842900000000A5010130A5
:10031800A2002408013A031DB3290D30FC00FB306C
:10032800FD00FD0B9529FC0B952900000000A0306D
:10033800D500AB30D600BC30D7005F30D8001830BD
:10034800D9008B200D30FC00FB30FD00FD0BAA29E5
:10035800FC0BAA2900000000A4010130A20008003B
:1003680020000E150E108E100330FC009730FD0093
:10037800FD0BBC29FC0BBC29000000000D1210303D
:10038800DA0020202000C60180304606F0008030C8
:100398000A3A70020318D6294708D500EA20200037
:1003A800C60AC8290D160330FC009730FD00FD0B66
:1003B800DB29FC0BDB29000000008E100E150E1443
:0203C80008002B
:1003CA0020000E150E108E100330FC009730FD0031
:1003DA00FD0BED29FC0BED29000000007B30CB0062
:1003EA000C30CC004430CD000130CE000130CF00BB
:1003FA004608D0004708D1004808D2004908D3006F
:10040A00DB30D4000D12DA0120202000CA0180302E
:10041A004A06F00080300A3A70020318242A4B3048
:10042A008400003085004A0884070030CA1BFF3068
:10043A00853D0008DA0020202000CA0A0C2A0D1681
:10044A000330FC009730FD00FD0B292AFC0B292AFA
:0C045A00000000008E100E150E140800AB
:1004660012001E00F003031D332AF103031D332A75
:0204760008007C
:1004780021008D120C158E100E100E110D128D15F7
:100488008C160C1623008C018D010C148C14220080
:1004980097171717971117119714171021001E1186
:1004A8009E141E148230FC00DD30FD00FD0B5A2A1C
:1004B800FC0B5A2A0000000069208230FC00DD3065
:1004C800FD00FD0B652AFC0B652A000000002000DA
:1004D8008D160630FB001330FC00AD30FD00FD0B1F
:1004E800732AFC0B732AFB0B732A000000008D1281
:1004F8008230FC00DD30FD00FD0B802AFC0B802AD9
:100508000000000023009F1567309B0000309C000E
:100518001E1539208230FC00DD30FD00FD0B922ACB
:0A052800FC0B922A000000000800FE
:1005320020000C19BB2A0D30FC00FB30FD00FD0B26
:10054200A02AFC0BA02A00000000B030D500AB307E
:10055200D600BC30D7005F30D8001830D9008B20CD
:100562000D30FC00FB30FD00FD0BB52AFC0BB52A5B
:1005720000000000D501842070082000A800710846
:10058200A9000430FC00E430FD00FD0BC62AFC0B80
:10059200C62A00000130D500842070082000A60081
:1005A2007108A7000430FC00E430FD00FD0BD72ADF
:1005B200FC0BD72A000080302906F0008030700240
:1005C200031DE52AC83028020318F92A0130A500C4
:1005D200A4018D160330FB008A30FC005530FD006B
:1005E200FD0BF12AFC0BF12AFB0BF12A00000000A3
:1005F2008030033AF000803029067002031D032B7D
:100602002808843C0318172B0130A000A4018D1682
:100612000330FB008A30FC005530FD00FD0B0F2B30
:10062200FC0B0F2BFB0B0F2B00000000803027066A
:10063200F00080307002031D202BC8302602031800
:10064200342B0130A100A4018D160330FB008A3047
:10065200FC005530FD00FD0B2C2BFC0B2C2BFB0B57
:100662002C2B000000008030033AF0008030270677
:100672007002031D3E2B2608843C0318522B0130C6
:10068200A300A4018D160330FB008A30FC00553014
:10069200FD00FD0B4A2BFC0B4A2BFB0B4A2B0000E7
:1006A200000080302906F0008030023A7002031DFB
:1006B2005C2B583028020318892B8030013AF00055
:1006C200803029067002031D682B2808903C03180D
:1006D200892B80302706F0008030023A7002031D19
:1006E200742B583026020318892B8030013AF0000F
:1006F200803027067002031D802B2608903C0318C9
:10070200892B0130A400A501A001A101A3018D1232
:020712000800DD
:100714002000A001A101A201A301A401A5013C2282
:10072400B4219230C600C530C700A630C800B0302E
:10073400C900E52199222208003A031DA22BF420C6
:06074400A2019C2BA42B76
:020000040001F9
:04000E00A23F3316C4
:00000001FF
